:0400000007EF00F016
:0A0008006582D2ED0DF00CEF0FF051
:1010000000476172616765204861766520537061B1
:101010006365005468657265204172652030204325
:1010200061727300546865726520417265203320D7
:10103000436172730047617261676520497320469E
:10104000756C6C00546865726520417265200025DE
:0310500069000034
:101054000F0EC1121F0E456E000E466E8BEC0AF089
:101064002D0E416E000E426EF0EC0EF02B0E416E12
:10107400000E426EF0EC0EF0300E3D6E000E3E6E31
:101084004AEC0DF02F0E3D6E000E3E6E4AEC0DF054
:101094001F0E456E000E466E130E476E100E486E00
:1010A400A7EC0DF01F0E4C6E000E4D6E020E4E6E30
:1010B400010E4F6E010E506E100E516E13EC0DF0BA
:1010C400000E526E000E536E000E546E300E336ED0
:1010D400000E346E520E356E000E366E7AEC0BF046
:1010E4005204D8A478EF08F07AEF08F0D7EF08F0AC
:1010F400030E546080EF08F082EF08F0D7EF08F099
:10110400542A1F0E4C6E000E4D6E010E4E6E0B0EC9
:101114004F6E5450300F506E4EEC0EF0030E5418B8
:10112400D8A497EF08F099EF08F0B9EF08F01F0E74
:10113400416E000E426E010E436EDAEC0CF01F0E8F
:10114400456E000E466E240E476E100E486EA7ECD8
:101154000DF01F0E4C6E000E4D6E020E4E6E010E03
:101164004F6E350E506E100E516E13EC0DF02D0EA9
:101174003D6E000E3E6E91EC0EF0030E3B6EE80EDB
:101184003A6EFDEC0DF02D0E3D6E000E3E6EB1EC90
:101194000EF0030E3B6EE80E3A6EFDEC0DF02D0ED4
:1011A4003D6E000E3E6E71EC0EF02F0E336E000E8F
:1011B400346E530E356E000E366E7AEC0BF053041B
:1011C400D8A4E7EF08F0E9EF08F068EF08F054500E
:1011D400D8B4EFEF08F0F1EF08F068EF08F0040E70
:1011E4005460F7EF08F0F9EF08F068EF08F05406E0
:1011F4001F0E416E000E426E010E436EDAEC0CF0CF
:101204001F0E456E000E466E440E476E100E486E5D
:10121400A7EC0DF01F0E4C6E000E4D6E010E4E6EBF
:101224000B0E4F6E5450300F506E4EEC0EF01F0EDE
:10123400456E000E466E1E0E476E100E486EA7ECED
:101244000DF01F0E4C6E000E4D6E020E4E6E010E12
:101254004F6E010E506E100E516E13EC0DF02B0EEE
:101264003D6E000E3E6E91EC0EF0030E3B6EE80EEA
:101274003A6EFDEC0DF02B0E3D6E000E3E6EB1ECA1
:101284000EF0030E3B6EE80E3A6EFDEC0DF02B0EE5
:101294003D6E000E3E6E71EC0EF068EF08F007EF45
:1012A40000F0010E3B6E33503410D8B45CEF09F0FB
:1012B4005EEF09F06FEF09F033C0D9FF34C0DAFFF5
:1012C400DF30E832E832070B356E070E35646DEF18
:1012D40009F06FEF09F0D2EF09F0000E3B6EF3EF67
:1012E40009F033C0D9FF34C0DAFFDF30E832E83226
:1012F400070B356E010E366E352A83EF09F0D89050
:101304003636352E81EF09F03650FF0A376E33C07A
:10131400D9FF34C0DAFFDF50070B386E3850020DA6
:10132400150EF324D96E000EF420DA6EDECF39F0F8
:10133400DDCF3AF039C0D9FF3AC0DAFF3750DF16B3
:10134400F3EF09F033C0D9FF34C0DAFFDF30E832FD
:10135400E832070B356E010E366E352AB4EF09F00C
:10136400D8903636352EB2EF09F033C0D9FF34C0E9
:10137400DAFFDF50070B376E3750020D150EF324DA
:10138400D96E000EF420DA6EDECF38F0DDCF39F0FE
:1013940038C0D9FF39C0DAFF3650DF12F3EF09F055
:1013A40033C0D9FF34C0DAFFDFBCDBEF09F0DEEF76
:1013B40009F0010EDFEF09F0000E356E366A365083
:1013C400000AD8B4E8EF09F06FEF09F03550000ACD
:1013D400D8B473EF09F0010AD8B4A4EF09F06FEFA1
:1013E40009F03B501200010E3C6E33503410D8B457
:1013F400FEEF09F000EF0AF011EF0AF033C0D9FF55
:1014040034C0DAFFDF30E832E832070B366E070EFD
:1014140036640FEF0AF011EF0AF074EF0AF0000ED1
:101424003C6E74EF0AF033C0D9FF34C0DAFFDF300A
:10143400E832E832070B366E010E376E362A25EF96
:101444000AF0D8903736362E23EF0AF03750FF0AC9
:10145400386E33C0D9FF34C0DAFFDF50070B396E62
:101464003950020D0B0EF324D96E000EF420DA6EFF
:10147400DECF3AF0DDCF3BF03AC0D9FF3BC0DAFF14
:101484003850DF1689EF0AF033C0D9FF34C0DAFFD1
:10149400DF30E832E832070B366E010E376E362A3B
:1014A40056EF0AF0D8903736362E54EF0AF033C090
:1014B400D9FF34C0DAFFDF50070B386E3850020D05
:1014C4000B0EF324D96E000EF420DA6EDECF39F061
:1014D400DDCF3AF039C0D9FF3AC0DAFF3750DF1216
:1014E40089EF0AF03550366E376A3750000AD8B49F
:1014F4007EEF0AF089EF0AF03650000AD8B415EFEF
:101504000AF0010AD8B446EF0AF089EF0AF03C5019
:101514001200000E4A6E45504610D8A494EF0AF00B
:1015240096EF0AF098EF0AF01AEF0BF045C03DF081
:1015340046C03EF04AEC0DF0496E010E45243D6E66
:10154400000E46203E6E4AEC0DF0496E000E4A6EC7
:101554004A504524476E000E4620486E020E47242A
:101564003D6E000E48203E6E4AEC0DF04A2A030EF2
:101574004A64BFEF0AF0C1EF0AF0AAEF0AF0340E92
:10158400476EF20EE82EFED7472EFCD745C041F039
:1015940046C042F0380E436EDAEC0CF00D0E476E86
:1015A400FC0EE82EFED7472EFCD745C041F046C0BE
:1015B40042F0380E436EDAEC0CF0640EE82EFED7DF
:1015C40045C041F046C042F0380E436EDAEC0CF0F0
:1015D40045C041F046C042F0010E436EDAEC0CF017
:1015E40045C041F046C042F0020E436EDAEC0CF006
:1015F40045C041F046C042F0060E436EDAEC0CF0F2
:1016040045C041F046C042F00C0E436EDAEC0CF0DB
:1016140045C041F046C042F0280E436EDAEC0CF0AF
:1016240045C041F046C042F0800E436EDAEC0CF047
:101634001200010E4B6E480645504610D8A425EF03
:101644000BF027EF0BF05BEF0BF0000E4B6E78EF17
:101654000BF045C041F046C042F04850800F436E45
:10166400DAEC0CF04B6E78EF0BF045C041F046C05D
:1016740042F04850C00F436EDAEC0CF04B6E78EF3A
:101684000BF045C041F046C042F04850940F436E01
:10169400DAEC0CF04B6E78EF0BF045C041F046C02D
:1016A40042F04850D40F436EDAEC0CF04B6E78EFF6
:1016B4000BF04750496E4A6A4A50000AD8B465EFA5
:1016C4000BF078EF0BF04950010AD8B42BEF0BF074
:1016D400030AD8B437EF0BF0010AD8B443EF0BF088
:1016E400070AD8B44FEF0BF078EF0BF04B50120011
:1016F40033503410D8B481EF0BF083EF0BF09DEF2F
:101704000BF035503610D8B48AEF0BF08CEF0BF099
:101714009DEF0BF033C0D9FF34C0DAFFDF30E8327D
:10172400E832070B376E070E37649BEF0BF09DEF23
:101734000BF09FEF0BF0D0EF0BF033C0D9FF34C0A8
:10174400DAFFDF30E832E832070B376E33C0D9FFF7
:1017540034C0DAFFDF50070B386E3850020D010E2B
:10176400F324D96E000EF420DA6EDECF39F0DDCF2B
:101774003AF039C0D9FF3AC0DAFFDF503B6E372A5E
:10178400C6EF0BF0D8903B32372EC4EF0BF03B5032
:10179400010B35C0D9FF36C0DAFFDF6E12003650B8
:1017A4003710D8A4D8EF0BF0DAEF0BF0DCEF0BF026
:1017B4001DEF0CF0D59E36C033F037C034F07BEC0F
:1017C4000DF036C033F037C034F0D1EC0EF036C033
:1017D40033F037C034F062EC0CF020EE03F03650F6
:1017E400D9263750DA22DECF38F0DDCF39F039C0D0
:1017F40038F0396A3850D76E20EE03F03650D926C7
:101804003750DA22DF50D66E20EE03F03650D92658
:101814003750DA22DECF5FF0DDCF60F0F28AF29447
:10182400F28EF28C36C0D9FF37C0DAFFDECF61F01A
:10183400DDCF62F0D58E12003D503E10D8A425EFC6
:101844000CF027EF0CF02BEF0CF0000E406E60EF65
:101854000CF0020E3D24336E000E3E20346E3F50D9
:10186400010B356EF5EC09F0406E030E3D24336E2A
:10187400000E3E20346ED8903F30010B356EF5ECEF
:1018840009F0406E040E3D24336E000E3E20346E8B
:101894003F40E8423F0B010B356EF5EC09F0406E1A
:1018A400050E3D24336E000E3E20346E3F38E8466C
:1018B4001F0B010B356EF5EC09F0406E4050120021
:1018C40020EE05F03350D9263450DA22DFA26DEF32
:1018D4000CF06FEF0CF072EF0CF0D59AA0EF0CF057
:1018E40020EE05F03350D9263450DA22DFB27DEFF2
:1018F4000CF07FEF0CF0A0EF0CF0D58A20EE05F091
:101904003350D9263450DA22DFA48BEF0CF08DEF5C
:101914000CF090EF0CF0D598A0EF0CF020EE05F051
:101924003350D9263450DA22DFB49BEF0CF09DEF0C
:101934000CF0A0EF0CF0D588A0EF0CF01200415091
:101944004210D8A4A8EF0CF0AAEF0CF0AEEF0CF004
:10195400000E446ED8EF0CF041C033F042C034F0B6
:10196400010E356EF5EC09F0446E41C03DF042C005
:101974003EF043380F0B3F6E1EEC0CF0446E41C03A
:101984003DF042C03EF026EC0EF0446E41C03DF006
:1019940042C03EF043C03FF01EEC0CF0446E41C028
:1019A4003DF042C03EF026EC0EF0446E445012006E
:1019B40041504210D8A4E1EF0CF0E3EF0CF0E7EF54
:1019C4000CF0000E446E11EF0DF041C033F042C034
:1019D40034F0000E356EF5EC09F0446E41C03DF074
:1019E40042C03EF043380F0B3F6E1EEC0CF0446EC9
:1019F40041C03DF042C03EF026EC0EF0446E41C0C2
:101A04003DF042C03EF043C03FF01EEC0CF0446E8B
:101A140041C03DF042C03EF026EC0EF0446E44500E
:101A240012004C504D10D8A41AEF0DF01CEF0DF01D
:101A34001EEF0DF049EF0DF04CC045F04DC046F0DF
:101A44004EC047F04FC048F01BEC0BF03AEF0DF0DE
:101A54004CC041F04DC042F050C0F6FF51C0F7FFFA
:101A6400F86A0800F5CF43F0A1EC0CF0504A512A73
:101A740050C0F6FF51C0F7FFF86A0800F55000099E
:101A8400D8A447EF0DF049EF0DF02AEF0DF0120046
:101A94003D503E10D8B451EF0DF053EF0DF064EF0C
:101AA4000DF03DC0D9FF3EC0DAFFDF30E832E83246
:101AB400070B3F6E070E3F6462EF0DF064EF0DF00D
:101AC40064EF0DF03DC033F03EC034F053EC09F048
:101AD4003DC033F03EC034F03DC0D9FF3EC0DAFF14
:101AE400000EDFBE010E356EF5EC09F0406E40507D
:101AF400120020EE05F03350D9263450DA22DFA646
:101B040086EF0DF088EF0DF098EF0DF0D59620EEEE
:101B140002F03350D9263450DA22DF50356ED550D6
:101B24003518F80B3518D56EA6EF0DF020EE05F03C
:101B34003350D9263450DA22DFB6A3EF0DF0A5EFE7
:101B44000DF0A6EF0DF0D586120045504610D8A42E
:101B5400AEEF0DF0B0EF0DF0C2EF0DF0D1EF0DF0E0
:101B640045C041F046C042F047C0F6FF48C0F7FF09
:101B7400F86A0800F5CF43F0A1EC0CF0474A482A74
:101B840047C0F6FF48C0F7FFF86A0800F55000099F
:101B9400D8A4CFEF0DF0D1EF0DF0B2EF0DF012009D
:101BA4000600FACF31F0FBCF32F0F2AADCEF0DF0F1
:101BB400DEEF0DF0E7EF0DF0F2A4E3EF0DF0E5EF4B
:101BC4000DF0E7EF0DF027EC0FF09DA0ECEF0DF01A
:101BD400EEEF0DF0F7EF0DF09EA0F3EF0DF0F5EF43
:101BE4000DF0F7EF0DF068EC0FF032C0FBFF31C0E1
:101BF400FAFF65921100250E366E000E376ED1EC99
:101C04000BF03A50631807E13B506418D8A40DEF69
:101C14000EF00FEF0EF003EF0EF03A50631807E1E9
:101C24003B506418D8A419EF0EF01BEF0EF01FEF11
:101C34000EF0000E646E000E636E250E336E000E01
:101C4400346E5AEC0FF012003D503E10D8A42DEF24
:101C54000EF02FEF0EF033EF0EF0000E3F6E4CEF50
:101C64000EF0010E3D24336E000E3E20346E010E44
:101C7400356EF5EC09F0030EE82EFED700F0010EE8
:101C84003D24336E000E3E20346E000E356EF5ECAE
:101C940009F03F6E3F5012004C504D10D8A455EF40
:101CA4000EF057EF0EF05BEF0EF0000E516E6FEF7B
:101CB4000EF04CC045F04DC046F04EC047F04FC04A
:101CC40048F01BEC0BF0516E4CC041F04DC042F09B
:101CD40050C043F0A1EC0CF0516E515012003D5035
:101CE4003E10D8A478EF0EF07AEF0EF07CEF0EF0F1
:101CF40090EF0EF03DC033F03EC034F0000E356E70
:101D0400F5EC09F03F6E010E3D24336E000E3E20CB
:101D1400346E000E356EF5EC09F03F6E12003D5046
:101D24003E10D8A498EF0EF09AEF0EF09CEF0EF050
:101D3400B0EF0EF03DC033F03EC034F0010E356E0E
:101D4400F5EC09F03F6E010E3D24336E000E3E208B
:101D5400346E000E356EF5EC09F03F6E12003D5006
:101D64003E10D8A4B8EF0EF0BAEF0EF0BCEF0EF0B0
:101D7400D0EF0EF03DC033F03EC034F0000E356EAF
:101D8400F5EC09F03F6E010E3D24336E000E3E204B
:101D9400346E010E356EF5EC09F03F6E120020EE44
:101DA40005F03350D9263450DA22DFA0DCEF0EF0F0
:101DB400DEEF0EF0E1EF0EF0D58CEFEF0EF020EE3B
:101DC40005F03350D9263450DA22DFB0ECEF0EF0B0
:101DD400EEEF0EF0EFEF0EF0D59C120041504210E2
:101DE400D8A4F7EF0EF0F9EF0EF0FBEF0EF00BEFC7
:101DF4000FF041C03DF042C03EF04AEC0DF0436E9E
:101E0400010E41243D6E000E42203E6E4AEC0DF060
:101E1400436E1200840EF66E1E0EF76E000EF86E00
:101E240000EE01F010EE30F00900F5CFEEFFE550C2
:101E3400E150FAE100EE55F0100EEE6AE806FDE11D
:101E44006590659200012AEF08F0F2946050D76E15
:101E54005FC0D6FF61506210D8B433EF0FF035EF96
:101E64000FF041EF0FF002D841EF0FF00500FA6ECA
:101E74006150FD6E6250FE6EFF6AFA50120012004D
:101E8400800F810F820F830F840F890F8A0F8B0FAE
:101E94008C0F8D0F920F930F940F950F960F020ACC
:101EA400121A222ADC1E009CFF0A131B030B494151
:101EB40033503410D8A461EF0FF063EF0FF065EFE7
:101EC4000FF067EF0FF0D59EF29A12009E905C50CF
:0E1ED400CF6E5BC0CEFF1200634A642A12007C
:020000040020DA
:08000000FFFFFFFFFFFFFFFF00
:020000040030CA
:0E000000FF080912FF8181FF0FC00FE00F40C3
:00000001FF
